{
  "contractName": "StudentEnrollment",
  "abi": [
    {
      "anonymous": false,
      "inputs": [
        {
          "indexed": true,
          "internalType": "uint256",
          "name": "id",
          "type": "uint256"
        },
        {
          "indexed": false,
          "internalType": "string",
          "name": "studentName",
          "type": "string"
        },
        {
          "indexed": false,
          "internalType": "string",
          "name": "courseTitle",
          "type": "string"
        }
      ],
      "name": "EnrollmentAdded",
      "type": "event"
    },
    {
      "inputs": [],
      "name": "enrollmentCounter",
      "outputs": [
        {
          "internalType": "uint256",
          "name": "",
          "type": "uint256"
        }
      ],
      "stateMutability": "view",
      "type": "function",
      "constant": true
    },
    {
      "inputs": [
        {
          "internalType": "string",
          "name": "",
          "type": "string"
        }
      ],
      "name": "enrollmentIdsByCertificateId",
      "outputs": [
        {
          "internalType": "uint256",
          "name": "",
          "type": "uint256"
        }
      ],
      "stateMutability": "view",
      "type": "function",
      "constant": true
    },
    {
      "inputs": [
        {
          "internalType": "uint256",
          "name": "",
          "type": "uint256"
        }
      ],
      "name": "enrollments",
      "outputs": [
        {
          "internalType": "string",
          "name": "studentName",
          "type": "string"
        },
        {
          "internalType": "uint256",
          "name": "enrolledDate",
          "type": "uint256"
        },
        {
          "internalType": "string",
          "name": "courseTitle",
          "type": "string"
        },
        {
          "internalType": "string",
          "name": "studentEmail",
          "type": "string"
        },
        {
          "internalType": "string",
          "name": "certificateProvider",
          "type": "string"
        },
        {
          "internalType": "string",
          "name": "certificateId",
          "type": "string"
        }
      ],
      "stateMutability": "view",
      "type": "function",
      "constant": true
    },
    {
      "inputs": [
        {
          "internalType": "string",
          "name": "_studentName",
          "type": "string"
        },
        {
          "internalType": "string",
          "name": "_courseTitle",
          "type": "string"
        },
        {
          "internalType": "string",
          "name": "_studentEmail",
          "type": "string"
        },
        {
          "internalType": "string",
          "name": "_certificateProvider",
          "type": "string"
        },
        {
          "internalType": "string",
          "name": "_certificateId",
          "type": "string"
        }
      ],
      "name": "enrollStudent",
      "outputs": [],
      "stateMutability": "nonpayable",
      "type": "function"
    },
    {
      "inputs": [
        {
          "internalType": "string",
          "name": "_certificateId",
          "type": "string"
        }
      ],
      "name": "getEnrollmentByCertificateId",
      "outputs": [
        {
          "internalType": "string",
          "name": "studentName",
          "type": "string"
        },
        {
          "internalType": "uint256",
          "name": "enrolledDate",
          "type": "uint256"
        },
        {
          "internalType": "string",
          "name": "courseTitle",
          "type": "string"
        },
        {
          "internalType": "string",
          "name": "studentEmail",
          "type": "string"
        },
        {
          "internalType": "string",
          "name": "certificateProvider",
          "type": "string"
        },
        {
          "internalType": "string",
          "name": "certificateId",
          "type": "string"
        }
      ],
      "stateMutability": "view",
      "type": "function",
      "constant": true
    }
  ],
  "bytecode": "0x6080604052348015600e575f80fd5b506110838061001c5f395ff3fe608060405234801561000f575f80fd5b5060043610610055575f3560e01c8063779ab924146100595780639a6b208714610075578063a6efe767146100aa578063bae714fe146100c8578063ece8d350146100fd575b5f80fd5b610073600480360381019061006e91906109d9565b61012d565b005b61008f600480360381019061008a9190610b0f565b610265565b6040516100a196959493929190610ba9565b60405180910390f35b6100b261053a565b6040516100bf9190610c2b565b60405180910390f35b6100e260048036038101906100dd9190610c44565b610540565b6040516100f496959493929190610ba9565b60405180910390f35b61011760048036038101906101129190610c44565b61085f565b6040516101249190610c2b565b60405180910390f35b5f60025490506040518060c00160405280878152602001428152602001868152602001858152602001848152602001838152505f808381526020019081526020015f205f820151815f0190816101839190610e85565b506020820151816001015560408201518160020190816101a39190610e85565b5060608201518160030190816101b99190610e85565b5060808201518160040190816101cf9190610e85565b5060a08201518160050190816101e59190610e85565b50905050806001836040516101fa9190610f8e565b90815260200160405180910390208190555060025f81548092919061021e90610fd1565b9190505550807f0a850a43bae6b4441c36c404afec95680133e1d13e18d7d38fe85d54c7b35f918787604051610255929190611018565b60405180910390a2505050505050565b5f602052805f5260405f205f91509050805f01805461028390610cb8565b80601f01602080910402602001604051908101604052809291908181526020018280546102af90610cb8565b80156102fa5780601f106102d1576101008083540402835291602001916102fa565b820191905f5260205f20905b8154815290600101906020018083116102dd57829003601f168201915b50505050509080600101549080600201805461031590610cb8565b80601f016020809104026020016040519081016040528092919081815260200182805461034190610cb8565b801561038c5780601f106103635761010080835404028352916020019161038c565b820191905f5260205f20905b81548152906001019060200180831161036f57829003601f168201915b5050505050908060030180546103a190610cb8565b80601f01602080910402602001604051908101604052809291908181526020018280546103cd90610cb8565b80156104185780601f106103ef57610100808354040283529160200191610418565b820191905f5260205f20905b8154815290600101906020018083116103fb57829003601f168201915b50505050509080600401805461042d90610cb8565b80601f016020809104026020016040519081016040528092919081815260200182805461045990610cb8565b80156104a45780601f1061047b576101008083540402835291602001916104a4565b820191905f5260205f20905b81548152906001019060200180831161048757829003601f168201915b5050505050908060050180546104b990610cb8565b80601f01602080910402602001604051908101604052809291908181526020018280546104e590610cb8565b80156105305780601f1061050757610100808354040283529160200191610530565b820191905f5260205f20905b81548152906001019060200180831161051357829003601f168201915b5050505050905086565b60025481565b60605f6060806060805f60018860405161055a9190610f8e565b90815260200160405180910390205490505f805f8381526020019081526020015f209050805f018160010154826002018360030184600401856005018580546105a290610cb8565b80601f01602080910402602001604051908101604052809291908181526020018280546105ce90610cb8565b80156106195780601f106105f057610100808354040283529160200191610619565b820191905f5260205f20905b8154815290600101906020018083116105fc57829003601f168201915b5050505050955083805461062c90610cb8565b80601f016020809104026020016040519081016040528092919081815260200182805461065890610cb8565b80156106a35780601f1061067a576101008083540402835291602001916106a3565b820191905f5260205f20905b81548152906001019060200180831161068657829003601f168201915b505050505093508280546106b690610cb8565b80601f01602080910402602001604051908101604052809291908181526020018280546106e290610cb8565b801561072d5780601f106107045761010080835404028352916020019161072d565b820191905f5260205f20905b81548152906001019060200180831161071057829003601f168201915b5050505050925081805461074090610cb8565b80601f016020809104026020016040519081016040528092919081815260200182805461076c90610cb8565b80156107b75780601f1061078e576101008083540402835291602001916107b7565b820191905f5260205f20905b81548152906001019060200180831161079a57829003601f168201915b505050505091508080546107ca90610cb8565b80601f01602080910402602001604051908101604052809291908181526020018280546107f690610cb8565b80156108415780601f1061081857610100808354040283529160200191610841565b820191905f5260205f20905b81548152906001019060200180831161082457829003601f168201915b50505050509050975097509750975097509750505091939550919395565b6001818051602081018201805184825260208301602085012081835280955050505050505f915090505481565b5f604051905090565b5f80fd5b5f80fd5b5f80fd5b5f80fd5b5f601f19601f8301169050919050565b7f4e487b71000000000000000000000000000000000000000000000000000000005f52604160045260245ffd5b6108eb826108a5565b810181811067ffffffffffffffff8211171561090a576109096108b5565b5b80604052505050565b5f61091c61088c565b905061092882826108e2565b919050565b5f67ffffffffffffffff821115610947576109466108b5565b5b610950826108a5565b9050602081019050919050565b828183375f83830152505050565b5f61097d6109788461092d565b610913565b905082815260208101848484011115610999576109986108a1565b5b6109a484828561095d565b509392505050565b5f82601f8301126109c0576109bf61089d565b5b81356109d084826020860161096b565b91505092915050565b5f805f805f60a086880312156109f2576109f1610895565b5b5f86013567ffffffffffffffff811115610a0f57610a0e610899565b5b610a1b888289016109ac565b955050602086013567ffffffffffffffff811115610a3c57610a3b610899565b5b610a48888289016109ac565b945050604086013567ffffffffffffffff811115610a6957610a68610899565b5b610a75888289016109ac565b935050606086013567ffffffffffffffff811115610a9657610a95610899565b5b610aa2888289016109ac565b925050608086013567ffffffffffffffff811115610ac357610ac2610899565b5b610acf888289016109ac565b9150509295509295909350565b5f819050919050565b610aee81610adc565b8114610af8575f80fd5b50565b5f81359050610b0981610ae5565b92915050565b5f60208284031215610b2457610b23610895565b5b5f610b3184828501610afb565b91505092915050565b5f81519050919050565b5f82825260208201905092915050565b8281835e5f83830152505050565b5f610b6c82610b3a565b610b768185610b44565b9350610b86818560208601610b54565b610b8f816108a5565b840191505092915050565b610ba381610adc565b82525050565b5f60c0820190508181035f830152610bc18189610b62565b9050610bd06020830188610b9a565b8181036040830152610be28187610b62565b90508181036060830152610bf68186610b62565b90508181036080830152610c0a8185610b62565b905081810360a0830152610c1e8184610b62565b9050979650505050505050565b5f602082019050610c3e5f830184610b9a565b92915050565b5f60208284031215610c5957610c58610895565b5b5f82013567ffffffffffffffff811115610c7657610c75610899565b5b610c82848285016109ac565b91505092915050565b7f4e487b71000000000000000000000000000000000000000000000000000000005f52602260045260245ffd5b5f6002820490506001821680610ccf57607f821691505b602082108103610ce257610ce1610c8b565b5b50919050565b5f819050815f5260205f209050919050565b5f6020601f8301049050919050565b5f82821b905092915050565b5f60088302610d447fffffffffffffffffffffffffffffffffffffffffffffffffffffffffffffffff82610d09565b610d4e8683610d09565b95508019841693508086168417925050509392505050565b5f819050919050565b5f610d89610d84610d7f84610adc565b610d66565b610adc565b9050919050565b5f819050919050565b610da283610d6f565b610db6610dae82610d90565b848454610d15565b825550505050565b5f90565b610dca610dbe565b610dd5818484610d99565b505050565b5b81811015610df857610ded5f82610dc2565b600181019050610ddb565b5050565b601f821115610e3d57610e0e81610ce8565b610e1784610cfa565b81016020851015610e26578190505b610e3a610e3285610cfa565b830182610dda565b50505b505050565b5f82821c905092915050565b5f610e5d5f1984600802610e42565b1980831691505092915050565b5f610e758383610e4e565b9150826002028217905092915050565b610e8e82610b3a565b67ffffffffffffffff811115610ea757610ea66108b5565b5b610eb18254610cb8565b610ebc828285610dfc565b5f60209050601f831160018114610eed575f8415610edb578287015190505b610ee58582610e6a565b865550610f4c565b601f198416610efb86610ce8565b5f5b82811015610f2257848901518255600182019150602085019450602081019050610efd565b86831015610f3f5784890151610f3b601f891682610e4e565b8355505b6001600288020188555050505b505050505050565b5f81905092915050565b5f610f6882610b3a565b610f728185610f54565b9350610f82818560208601610b54565b80840191505092915050565b5f610f998284610f5e565b915081905092915050565b7f4e487b71000000000000000000000000000000000000000000000000000000005f52601160045260245ffd5b5f610fdb82610adc565b91507fffffffffffffffffffffffffffffffffffffffffffffffffffffffffffffffff820361100d5761100c610fa4565b5b600182019050919050565b5f6040820190508181035f8301526110308185610b62565b905081810360208301526110448184610b62565b9050939250505056fea264697066735822122095d1440cf2455394d4de7f9a908df5b377acfffcbf69e4da2e2db75404500faf64736f6c63430008190033",
  "immutableReferences": {},
  "source": "// SPDX-License-Identifier: MIT\r\npragma solidity ^0.8.0;\r\n\r\ncontract StudentEnrollment {\r\n    struct Enrollment {\r\n        string studentName;\r\n        uint256 enrolledDate;\r\n        string courseTitle;\r\n        string studentEmail;\r\n        string certificateProvider;\r\n        string certificateId;\r\n    }\r\n\r\n    mapping(uint256 => Enrollment) public enrollments;\r\n    mapping(string => uint256) public enrollmentIdsByCertificateId; // Mapping from certificateId to enrollmentId\r\n    uint256 public enrollmentCounter;\r\n\r\n    event EnrollmentAdded(uint256 indexed id, string studentName, string courseTitle);\r\n\r\n\r\n    function enrollStudent(\r\n        string memory _studentName,\r\n        string memory _courseTitle,\r\n        string memory _studentEmail,\r\n        string memory _certificateProvider,\r\n        string memory _certificateId\r\n    ) public {\r\n        uint256 id = enrollmentCounter;\r\n        enrollments[id] = Enrollment({\r\n            studentName: _studentName,\r\n            enrolledDate: block.timestamp, // Use block timestamp as enrolledDate\r\n            courseTitle: _courseTitle,\r\n            studentEmail: _studentEmail,\r\n            certificateProvider: _certificateProvider,\r\n            certificateId:_certificateId\r\n        });\r\n        enrollmentIdsByCertificateId[_certificateId] = id; // Update mapping\r\n        enrollmentCounter++;\r\n\r\n        emit EnrollmentAdded(id, _studentName, _courseTitle);\r\n    }\r\n\r\n    // Function to retrieve enrollment details by certificateId\r\n    function getEnrollmentByCertificateId(string memory _certificateId) public view returns (\r\n        string memory studentName,\r\n        uint256 enrolledDate,\r\n        string memory courseTitle,\r\n        string memory studentEmail,\r\n        string memory certificateProvider,\r\n        string memory certificateId\r\n    ) {\r\n        uint256 id = enrollmentIdsByCertificateId[_certificateId];\r\n        Enrollment storage enrollment = enrollments[id];\r\n        return (\r\n            enrollment.studentName,\r\n            enrollment.enrolledDate,\r\n            enrollment.courseTitle,\r\n            enrollment.studentEmail,\r\n            enrollment.certificateProvider,\r\n            enrollment.certificateId\r\n        );\r\n    }\r\n}\r\n",
  "sourcePath": "c:\\Users\\chdin\\Documents\\hackthons\\backend\\contracts\\StudentEnrollment.sol",
  "compiler": {
    "name": "solc",
    "version": "0.8.25+commit.b61c2a91.Emscripten.clang"
  },
  "schemaVersion": "3.4.16",
  "updatedAt": "2024-05-01T15:50:32.028Z",
  "networkType": "ethereum",
  "devdoc": {
    "kind": "dev",
    "methods": {},
    "version": 1
  },
  "userdoc": {
    "kind": "user",
    "methods": {},
    "version": 1
  }
}